{
  "contractName": "Campaign",
  "abi": [
    {
      "inputs": [
        {
          "internalType": "uint256",
          "name": "minimum",
          "type": "uint256"
        },
        {
          "internalType": "address",
          "name": "creator",
          "type": "address"
        }
      ],
      "stateMutability": "nonpayable",
      "type": "constructor"
    },
    {
      "inputs": [
        {
          "internalType": "address",
          "name": "",
          "type": "address"
        }
      ],
      "name": "approvers",
      "outputs": [
        {
          "internalType": "bool",
          "name": "",
          "type": "bool"
        }
      ],
      "stateMutability": "view",
      "type": "function"
    },
    {
      "inputs": [],
      "name": "approversCount",
      "outputs": [
        {
          "internalType": "uint256",
          "name": "",
          "type": "uint256"
        }
      ],
      "stateMutability": "view",
      "type": "function"
    },
    {
      "inputs": [],
      "name": "manager",
      "outputs": [
        {
          "internalType": "address",
          "name": "",
          "type": "address"
        }
      ],
      "stateMutability": "view",
      "type": "function"
    },
    {
      "inputs": [],
      "name": "minimumContribution",
      "outputs": [
        {
          "internalType": "uint256",
          "name": "",
          "type": "uint256"
        }
      ],
      "stateMutability": "view",
      "type": "function"
    },
    {
      "inputs": [
        {
          "internalType": "uint256",
          "name": "",
          "type": "uint256"
        }
      ],
      "name": "requests",
      "outputs": [
        {
          "internalType": "string",
          "name": "description",
          "type": "string"
        },
        {
          "internalType": "uint256",
          "name": "value",
          "type": "uint256"
        },
        {
          "internalType": "address payable",
          "name": "recipient",
          "type": "address"
        },
        {
          "internalType": "bool",
          "name": "complete",
          "type": "bool"
        },
        {
          "internalType": "uint256",
          "name": "approvalCount",
          "type": "uint256"
        }
      ],
      "stateMutability": "view",
      "type": "function"
    },
    {
      "inputs": [],
      "name": "requestsCount",
      "outputs": [
        {
          "internalType": "uint256",
          "name": "",
          "type": "uint256"
        }
      ],
      "stateMutability": "view",
      "type": "function"
    },
    {
      "inputs": [],
      "name": "contribute",
      "outputs": [],
      "stateMutability": "payable",
      "type": "function"
    },
    {
      "inputs": [
        {
          "internalType": "string",
          "name": "description",
          "type": "string"
        },
        {
          "internalType": "uint256",
          "name": "value",
          "type": "uint256"
        },
        {
          "internalType": "address payable",
          "name": "recipient",
          "type": "address"
        }
      ],
      "name": "createRequest",
      "outputs": [],
      "stateMutability": "nonpayable",
      "type": "function"
    },
    {
      "inputs": [
        {
          "internalType": "uint256",
          "name": "index",
          "type": "uint256"
        }
      ],
      "name": "approveRequest",
      "outputs": [],
      "stateMutability": "nonpayable",
      "type": "function"
    },
    {
      "inputs": [
        {
          "internalType": "uint256",
          "name": "index",
          "type": "uint256"
        }
      ],
      "name": "finalizeRequest",
      "outputs": [],
      "stateMutability": "nonpayable",
      "type": "function"
    },
    {
      "inputs": [],
      "name": "getSummary",
      "outputs": [
        {
          "internalType": "uint256",
          "name": "",
          "type": "uint256"
        },
        {
          "internalType": "uint256",
          "name": "",
          "type": "uint256"
        },
        {
          "internalType": "uint256",
          "name": "",
          "type": "uint256"
        },
        {
          "internalType": "uint256",
          "name": "",
          "type": "uint256"
        },
        {
          "internalType": "address",
          "name": "",
          "type": "address"
        }
      ],
      "stateMutability": "view",
      "type": "function"
    },
    {
      "inputs": [],
      "name": "getRequestsCount",
      "outputs": [
        {
          "internalType": "uint256",
          "name": "",
          "type": "uint256"
        }
      ],
      "stateMutability": "view",
      "type": "function"
    }
  ],
  "bytecode": "0x60806040523480156200001157600080fd5b5060405162000fe838038062000fe883398181016040528101906200003791906200012b565b806000806101000a81548173ffffffffffffffffffffffffffffffffffffffff021916908373ffffffffffffffffffffffffffffffffffffffff16021790555081600181905550505062000172565b600080fd5b6000819050919050565b620000a0816200008b565b8114620000ac57600080fd5b50565b600081519050620000c08162000095565b92915050565b600073ffffffffffffffffffffffffffffffffffffffff82169050919050565b6000620000f382620000c6565b9050919050565b6200010581620000e6565b81146200011157600080fd5b50565b6000815190506200012581620000fa565b92915050565b6000806040838503121562000145576200014462000086565b5b60006200015585828601620000af565b9250506020620001688582860162000114565b9150509250929050565b610e6680620001826000396000f3fe6080604052600436106100a75760003560e01c806382fde0931161006457806382fde093146101d85780638a9cfd5514610203578063937e09b11461022c578063d7bb99ba14610257578063d7d1bbdb14610261578063fbfa4b7f1461028a576100a7565b806303441006146100ac5780630a144391146100d55780633410452a146101125780634051ddac1461013d578063481c6a751461016c57806381d12c5814610197575b600080fd5b3480156100b857600080fd5b506100d360048036038101906100ce9190610949565b6102b5565b005b3480156100e157600080fd5b506100fc60048036038101906100f791906109d4565b6103ee565b6040516101099190610a1c565b60405180910390f35b34801561011e57600080fd5b5061012761040e565b6040516101349190610a46565b60405180910390f35b34801561014957600080fd5b50610152610418565b604051610163959493929190610a70565b60405180910390f35b34801561017857600080fd5b5061018161045c565b60405161018e9190610ac3565b60405180910390f35b3480156101a357600080fd5b506101be60048036038101906101b99190610949565b610480565b6040516101cf959493929190610b98565b60405180910390f35b3480156101e457600080fd5b506101ed61056b565b6040516101fa9190610a46565b60405180910390f35b34801561020f57600080fd5b5061022a60048036038101906102259190610c83565b610571565b005b34801561023857600080fd5b5061024161069c565b60405161024e9190610a46565b60405180910390f35b61025f6106a2565b005b34801561026d57600080fd5b5061028860048036038101906102839190610949565b610722565b005b34801561029657600080fd5b5061029f610860565b6040516102ac9190610a46565b60405180910390f35b60008054906101000a900473ffffffffffffffffffffffffffffffffffffffff1673ffffffffffffffffffffffffffffffffffffffff163373ffffffffffffffffffffffffffffffffffffffff161461030d57600080fd5b600060066000838152602001908152602001600020905060026003546103339190610d55565b81600301541161034257600080fd5b8060020160149054906101000a900460ff161561035e57600080fd5b8060020160009054906101000a900473ffffffffffffffffffffffffffffffffffffffff1673ffffffffffffffffffffffffffffffffffffffff166108fc82600101549081150290604051600060405180830381858888f193505050501580156103cc573d6000803e3d6000fd5b5060018160020160146101000a81548160ff0219169083151502179055505050565b60026020528060005260406000206000915054906101000a900460ff1681565b6000600454905090565b60008060008060006001544760045460035460008054906101000a900473ffffffffffffffffffffffffffffffffffffffff16945094509450945094509091929394565b60008054906101000a900473ffffffffffffffffffffffffffffffffffffffff1681565b60066020528060005260406000206000915090508060000180546104a390610db5565b80601f01602080910402602001604051908101604052809291908181526020018280546104cf90610db5565b801561051c5780601f106104f15761010080835404028352916020019161051c565b820191906000526020600020905b8154815290600101906020018083116104ff57829003601f168201915b5050505050908060010154908060020160009054906101000a900473ffffffffffffffffffffffffffffffffffffffff16908060020160149054906101000a900460ff16908060030154905085565b60035481565b60008054906101000a900473ffffffffffffffffffffffffffffffffffffffff1673ffffffffffffffffffffffffffffffffffffffff163373ffffffffffffffffffffffffffffffffffffffff16146105c957600080fd5b600060066000600560008154809291906105e290610de7565b91905055815260200190815260200160002090508484826000019190610609929190610866565b50828160010181905550818160020160006101000a81548173ffffffffffffffffffffffffffffffffffffffff021916908373ffffffffffffffffffffffffffffffffffffffff16021790555060008160020160146101000a81548160ff021916908315150217905550600081600301819055506004600081548092919061069090610de7565b91905055505050505050565b60015481565b60015434116106b057600080fd5b6001600260003373ffffffffffffffffffffffffffffffffffffffff1673ffffffffffffffffffffffffffffffffffffffff16815260200190815260200160002060006101000a81548160ff0219169083151502179055506003600081548092919061071b90610de7565b9190505550565b6000600660008381526020019081526020016000209050600260003373ffffffffffffffffffffffffffffffffffffffff1673ffffffffffffffffffffffffffffffffffffffff16815260200190815260200160002060009054906101000a900460ff1661078f57600080fd5b8060040160003373ffffffffffffffffffffffffffffffffffffffff1673ffffffffffffffffffffffffffffffffffffffff16815260200190815260200160002060009054906101000a900460ff16156107e857600080fd5b60018160040160003373ffffffffffffffffffffffffffffffffffffffff1673ffffffffffffffffffffffffffffffffffffffff16815260200190815260200160002060006101000a81548160ff02191690831515021790555080600301600081548092919061085790610de7565b91905055505050565b60045481565b82805461087290610db5565b90600052602060002090601f01602090048101928261089457600085556108db565b82601f106108ad57803560ff19168380011785556108db565b828001600101855582156108db579182015b828111156108da5782358255916020019190600101906108bf565b5b5090506108e891906108ec565b5090565b5b808211156109055760008160009055506001016108ed565b5090565b600080fd5b600080fd5b6000819050919050565b61092681610913565b811461093157600080fd5b50565b6000813590506109438161091d565b92915050565b60006020828403121561095f5761095e610909565b5b600061096d84828501610934565b91505092915050565b600073ffffffffffffffffffffffffffffffffffffffff82169050919050565b60006109a182610976565b9050919050565b6109b181610996565b81146109bc57600080fd5b50565b6000813590506109ce816109a8565b92915050565b6000602082840312156109ea576109e9610909565b5b60006109f8848285016109bf565b91505092915050565b60008115159050919050565b610a1681610a01565b82525050565b6000602082019050610a316000830184610a0d565b92915050565b610a4081610913565b82525050565b6000602082019050610a5b6000830184610a37565b92915050565b610a6a81610996565b82525050565b600060a082019050610a856000830188610a37565b610a926020830187610a37565b610a9f6040830186610a37565b610aac6060830185610a37565b610ab96080830184610a61565b9695505050505050565b6000602082019050610ad86000830184610a61565b92915050565b600081519050919050565b600082825260208201905092915050565b60005b83811015610b18578082015181840152602081019050610afd565b83811115610b27576000848401525b50505050565b6000601f19601f8301169050919050565b6000610b4982610ade565b610b538185610ae9565b9350610b63818560208601610afa565b610b6c81610b2d565b840191505092915050565b6000610b8282610976565b9050919050565b610b9281610b77565b82525050565b600060a0820190508181036000830152610bb28188610b3e565b9050610bc16020830187610a37565b610bce6040830186610b89565b610bdb6060830185610a0d565b610be86080830184610a37565b9695505050505050565b600080fd5b600080fd5b600080fd5b60008083601f840112610c1757610c16610bf2565b5b8235905067ffffffffffffffff811115610c3457610c33610bf7565b5b602083019150836001820283011115610c5057610c4f610bfc565b5b9250929050565b610c6081610b77565b8114610c6b57600080fd5b50565b600081359050610c7d81610c57565b92915050565b60008060008060608587031215610c9d57610c9c610909565b5b600085013567ffffffffffffffff811115610cbb57610cba61090e565b5b610cc787828801610c01565b94509450506020610cda87828801610934565b9250506040610ceb87828801610c6e565b91505092959194509250565b7f4e487b7100000000000000000000000000000000000000000000000000000000600052601260045260246000fd5b7f4e487b7100000000000000000000000000000000000000000000000000000000600052601160045260246000fd5b6000610d6082610913565b9150610d6b83610913565b925082610d7b57610d7a610cf7565b5b828204905092915050565b7f4e487b7100000000000000000000000000000000000000000000000000000000600052602260045260246000fd5b60006002820490506001821680610dcd57607f821691505b60208210811415610de157610de0610d86565b5b50919050565b6000610df282610913565b91507fffffffffffffffffffffffffffffffffffffffffffffffffffffffffffffffff821415610e2557610e24610d26565b5b60018201905091905056fea264697066735822122077ef3760b7e783b0d3efc7cc4d1435e6021bc9527f838ea83f2acc89f0926e7164736f6c63430008090033",
  "immutableReferences": {},
  "source": "// SPDX-License-Identifier: GPL-3.0\r\npragma solidity >=0.7.0 <0.9.0;\r\n\r\n\r\n\r\ncontract CampaignFactory {\r\n    Campaign[] public deployedCampaigns;\r\n\r\n    function createCampaign (uint minimum) public {\r\n       Campaign newCampaign =  new Campaign(minimum, msg.sender);\r\n       deployedCampaigns.push(newCampaign);\r\n    }\r\n\r\n    function getDeployedCampaigns () public view returns (Campaign[] memory) {\r\n        return deployedCampaigns;\r\n    }\r\n}\r\n\r\n\r\ncontract Campaign {\r\n\r\n    struct Request{\r\n        string description;\r\n        uint value;\r\n        address payable recipient;\r\n        bool complete;\r\n        uint approvalCount;\r\n        mapping(address => bool) approvals;\r\n    }\r\n\r\n    address public manager;\r\n    uint public minimumContribution;\r\n    mapping(address => bool) public approvers;\r\n    uint public approversCount;\r\n    uint public requestsCount;\r\n    //Request[] public requests;\r\n\r\n\r\n    uint numRequests;\r\n    mapping (uint => Request) public requests;\r\n\r\n    constructor(uint minimum, address creator) {\r\n        manager = creator;\r\n        minimumContribution = minimum;\r\n    }\r\n\r\n    function contribute() public payable {\r\n        require(msg.value > minimumContribution);\r\n        approvers[msg.sender] = true;\r\n        approversCount++;\r\n    }\r\n\r\n    function createRequest(string calldata description, uint value, address payable recipient) public restricted {\r\n\r\n        Request storage r = requests[numRequests++];\r\n        r.description = description;\r\n        r.value = value;\r\n        r.recipient = recipient;\r\n        r.complete = false;\r\n        r.approvalCount = 0;\r\n\r\n        requestsCount++;\r\n    }\r\n\r\n    function approveRequest(uint index) public {\r\n\r\n        Request storage request = requests[index];\r\n        require(approvers[msg.sender]);\r\n        require(!request.approvals[msg.sender]);\r\n\r\n        request.approvals[msg.sender] = true;\r\n        request.approvalCount++;\r\n\r\n    }\r\n\r\n    function finalizeRequest(uint index) public restricted {\r\n        Request storage request = requests[index];\r\n\r\n        require(request.approvalCount > (approversCount / 2));\r\n        require(!request.complete);\r\n\r\n        request.recipient.transfer(request.value);\r\n        request.complete = true;\r\n    }\r\n\r\n    function getSummary() public view returns (uint, uint, uint, uint, address)  {\r\n        return(\r\n            minimumContribution,\r\n            address(this).balance,\r\n            requestsCount,\r\n            approversCount,\r\n            manager\r\n        );\r\n    }\r\n    \r\n    function getRequestsCount() public view returns(uint) {\r\n        return requestsCount;\r\n    }\r\n\r\n\r\n    modifier restricted(){\r\n        require(msg.sender == manager);\r\n        _;\r\n    }\r\n\r\n}",
  "sourcePath": "C:\\Users\\Natsoft\\Desktop\\Ethereum Course\\CampaignProject\\solidity\\contracts\\Campaign.sol",
  "compiler": {
    "name": "solc",
    "version": "0.8.9+commit.e5eed63a.Emscripten.clang"
  },
  "schemaVersion": "3.4.3",
  "updatedAt": "2021-12-02T09:52:06.693Z",
  "devdoc": {
    "kind": "dev",
    "methods": {},
    "version": 1
  },
  "userdoc": {
    "kind": "user",
    "methods": {},
    "version": 1
  }
}